:100000000C94130A0C947D6F0C94526F0C94276F10
:100010000C94FC6E0C94D16E0C94A66E0C947B6EBA
:100020000C94506E0C94440A0C94440A0C94440AA8
:100030000C94440A0C94440A0C94440A0C94440A08
:100040000C94440A0C94440A0C94440A0C94440AF8
:100050000C94440A0C94440A0C94440A0C94066EC2
:100060000C94440A0C94D06D0C94A66D0C94440A24
:100070000C94440A0C94440A0C94440A0C94440AC8
:100080000C94440A0C94440A0C94440A0C94440AB8
:100090000C94440A0C94440A0C94440A0C94A86FDF
:1000A0000C94440A0C94440A0C94440A0C94440A98
:1000B0000C94440A0C94440A0C94440A0C94440A88
:1000C0000C94440A0C94440A0C94440A0C94440A78
:1000D0000C94440A0C94440A0C94440A0C94440A68
:1000E0000C94440A0C94090C0C94595E0C94B45F63
:1000F0000C94B9220C94040C0C949E7B0C947C6C94
:100100000C9404240C94D7610C94ED280C94DE0B11
:100110000C940D0B0C94DD320C949E6A0C941F23EE
:100120000C9452470C94BA0F0C94082E0C94FC0BB0
:100130000C94BB0F0C941F280C94A9220C94056BF3
:100140000C94930F0C94E40B0C94255F0C94605B5F
:100150000C940E0C0C94B30A0C94F20B0C94E80B58
:100160000C9430230C942F660C94B0460C94096BBD
:100170000C9492440C94B8710C94DB0B0C94E21028
:100180000C94DA320C943D640C9406120C94634285
:100190000C940A0F0C94A40A0C94236D0C9403295C
:1001A0000C943E290C9444230C945B480C944123FA
:1001B0000C948C0F0C94BF220C94D70B0C94AC2590
:1001C0000C94AE420C94EF0F0C9434610C94F60B2B
:1001D0000C94EE0B0C94185E0C94BE680C94550FA6
:1001E0000C9472440C9489610C94E5580C945A0B4D
:1001F0000C94090D0C943A480C941D230C94BC22C9
:100200000C9478600C9437650C94B8220C94FA1115
:100210000C94460A0C94D30B0C944C440C94C022BE
:100220000C94F20F0C943E230C94D50A0C947B2D65
:100230000C94490A0C940A0C0C942A230C94B722AF
:100240000C9444480C9447480C9421220C94530D70
:100250000C94D9600C94C70A0C9443600C94770AF0
:100260000C94C90B0C94CF0B0C9461640C94E36058
:100270000C94AE600C9464640C941F640C94000C99
:100280000C944E230C94A06C0C9412530C94514873
:1002900046726F6D20666F6C6465723A2025730A32
:1002A0000053656C65637465642066696C653A200B
:1002B00025730A0046726F6D20666F6C6465723A32
:1002C0002025730A0053656C656374656420666954
:1002D0006C653A2025730A002E2E2E20494E495473
:1002E00020636F6D706C6574650A0053656E646998
:1002F0006E6720494E4954202E2E2E0A0052583A3D
:100300002025732072785F786D69745F6573282586
:1003100030346F290A0A0052583A20494E49542075
:10032000686173202573636C656172656420743D38
:10033000256C756D730A0052583A207761697469AB
:100340006E6720666F7220494E495420746F206397
:100350006C656172202E2E2E20743D256C756D7398
:100360000A0052583A20257320576F726425643A68
:10037000202530336F202530336F0A0052583A2041
:10038000257320576F726425643A202530336F201F
:100390002530336F0A0052583A20257320576F7268
:1003A0006425643A202530336F202530336F0A00EE
:1003B00052583A20257320576F726425643A2025DD
:1003C00030336F202530336F0A0052583A2025739E
:1003D00020706F733D256C752E206C656E3D257504
:1003E0002E0A0052583A2025732074613D2530337F
:1003F0006F0A0052583A2025732073613D2530332F
:100400006F0A0052583A202573207A65726F206671
:10041000696C6C20627566666572202530336F2EBC
:100420002E2530336F0A000A000A00202530346F71
:1004300000202530336F0052583A20257320253094
:10044000336F3A000A000A00202530346F0020255F
:1004500030336F0052583A202573202530336F3ADD
:100460000052583A2025732077633D2530336F20A2
:1004700057434F56460A0052583A20257320776357
:100480003D2530336F0A0052583A20257320756E8F
:1004900069743D256F2064656E3D25630A005258DE
:1004A0003A20636D643D2530346F0A000A00202035
:1004B00020202072782E6472765B25645D2E6C6538
:1004C0006E203D2025752E0A0020202020207278E5
:1004D0002E6472765B25645D2E706F73203D20253F
:1004E0006C752E0A0020202020202072782E647245
:1004F000765B25645D2E7361203D202530336F0AC5
:100500000020202020202072782E6472765B2564E3
:100510005D2E7461203D202530336F0A002020209D
:10052000202072782E6472765B25645D2E64656E81
:10053000203D2025630A00202020202072782E6490
:1005400072765B25645D2E726479203D2025630AF6
:10055000002020202072782E6472765B25645D2E48
:100560006D6F6465203D205225630A002020202005
:1005700072782E6472765B25645D2E6E616D6520E7
:100580003D20272573270A000A00202072782E6656
:10059000636E2E6E616D65203D2025730A0020205C
:1005A00072782E66636E2E636F6465203D20256F22
:1005B0000A002020202072782E74696D696E6720F1
:1005C0003D20256F0A002020202072782E6572724F
:1005D000636E74203D2025752E0A00202020207295
:1005E000782E636D64636E74203D2025752E0A009D
:1005F00020202020202072782E74797065203D20E4
:1006000052583025640A0020202020202072782EA5
:10061000756E6974203D20256F0A0020202020205F
:10062000202072782E64656E203D2025630A00200C
:1006300020202020202072782E6C656E203D202501
:10064000752E0A002020202020202072782E706F26
:1006500073203D20256C752E0A00202020202020AC
:10066000202072782E7361203D202530336F0A00E0
:10067000202020202020202072782E7461203D2010
:100680002530336F0A00202020202020202072787F
:100690002E7463203D202530336F0A002020202057
:1006A0002020202072782E7763203D202530336F64
:1006B0000A00202020202020202072782E65632030
:1006C0003D202530346F0A002020202020202020CB
:1006D00072782E6573203D202530346F0A0020206B
:1006E00020202020202072782E6373203D2025308A
:1006F000366F0A000A00202020202020692F662063
:1007000072756E203D20256F0A0020202020206970
:100710002F6620696E6974203D20256F0A00202015
:10072000202020692F66206D6F6465203D20257391
:100730000A0020202020692F6620776964746820D1
:100740003D2025642E0A000A0A2D2D2D2052582006
:10075000456D756C61746F722053746174652044CB
:10076000756D70202D2D2D0A0A003F556E6B6E6F32
:10077000776E20636F6D6D616E643F0A000A4E6F85
:1007800074653A20636861727320696E202829209D
:10079000617265206F7074696F6E616C2E204361A9
:1007A000736520646F6573206E6F74206D6174745F
:1007B00065722E0A0020206828656C702920202090
:1007C00020202020202D2D20646973706C617920F9
:1007D0007468697320746578740A00202077287221
:1007E00069746529202020202020202D2D2077725B
:1007F0006974652063757272656E7420636F6E66CE
:10080000696775726174696F6E20696E746F2074A8
:1008100068652053455455502E494E492066696CF1
:10082000650A0020206B28696C6C2920202020207C
:100830002020202D2D206B696C6C2074686520654C
:100840006D756C61746F72202872657365742061B8
:100850006E6420726573746172742C206C696B65B0
:1008600020726573657420627574746F6E290A0056
:10087000202069286E697429202020202020202033
:100880002D2D20696E697469616C697A6520656DCA
:10089000756C61746F7220286C696B6520756E6968
:1008A00062757320494E4954290A0020207028722D
:1008B000696E7429202020202020202D2D20707288
:1008C000696E742066756C6C20656D756C617469F9
:1008D0006F6E2073746174650A0020207328686F3E
:1008E000772920202020202020202D2D2073686FA4
:1008F000772063757272656E7420756E69742066F8
:10090000696C656E616D652061737369676E6D6595
:100910006E74730A0020206C2869737429202020CB
:1009200020202020202D2D206C69737420616C6C98
:100930002066696C6573206F6E207468652053446F
:1009400020636172640A002020662046494C454EAF
:10095000414D45202020202D2D20657874656E6442
:100960002F7472756E636174652066696C652046CC
:10097000494C454E414D4520746F20646F75626C43
:10098000652064656E736974792073697A650A00FD
:100990002020652046494C454E414D4520202020D1
:1009A0002D2D20657874656E642F7472756E636189
:1009B00074652066696C652046494C454E414D453D
:1009C00020746F2073696E676C652064656E73694F
:1009D00074792073697A650A002020722046494C98
:1009E000454E414D45202020202D2D2072656D6FF4
:1009F00076652066696C652046494C454E414D45FB
:100A00000A0020202020202020202020202020201C
:100A100020202020203020617320666173742061C3
:100A20007320706F737369626C653B203220736949
:100A30006D756C61746573207265616C20525830FD
:100A4000322064726976650A0020207428696D6915
:100A50006E6729204E202020202D2D2074696D697D
:100A60006E67206D6F64652C20303D666173742C59
:100A700020313D6D656469756D2C20323D6E6F725D
:100A80006D616C3B2064656661756C7420300A0092
:100A9000202064286562756729204E2020202020B0
:100AA0002D2D206465627567206C6576656C2C2041
:100AB000303D6E6F6E652C20333D6D61783B206458
:100AC000656661756C7420310A00323D52583032CF
:100AD0002B616E793B2064656661756C7420320A07
:100AE0000020206D286F646529204E2020202020C2
:100AF000202D2D2073657420656D756C6174696F90
:100B00006E206D6F64652C20303D525830312B5271
:100B10005831312C20313D525830312B5258384504
:100B20002C200020206E286F29204E2020202020FD
:100B30002020202D2D2073657420756E6974204E41
:100B40002066696C6520726561642D6F6E6C790A30
:100B50000020207928657329204E20202020202085
:100B6000202D2D2073657420756E6974204E2066CB
:100B7000696C6520726561642D77726974652028DF
:100B800064656661756C74290A002020202020208D
:100B90002020202020202020202020202066696C7A
:100BA00065206E616D6520276E6F6E652720286158
:100BB0006E7920636173652920666F72206E6F20E5
:100BC0006469736B2070726573656E740A0020200F
:100BD000312046494C454E414D45202020202D2DA9
:100BE0002073657420756E697420312066696C65A8
:100BF00020746F2046494C454E414D453B2064656D
:100C00006661756C74205258312E44534B0A002093
:100C100020202020202020202020202020202020D4
:100C2000202066696C65206E616D6520276E6F6E91
:100C300065272028616E7920636173652920666FBE
:100C400072206E6F206469736B2070726573656EBD
:100C5000740A002020302046494C454E414D452025
:100C60002020202D2D2073657420756E697420302E
:100C70002066696C6520746F2046494C454E414D95
:100C8000453B2064656661756C74205258302E4473
:100C9000534B0A000A436F6D6D616E647320617679
:100CA00061696C61626C653A0A0A002A2A2A20533B
:100CB000484F554C44204E455645522047455420F8
:100CC000484552452A2A2A0A000A2A2A2A20526519
:100CD000626F6F74696E672074686520656D756CEE
:100CE00061746F72202A2A2A0A002E2E2E20494E65
:100CF000495420636F6D706C6574650A0053656EAE
:100D000064696E6720494E4954202E2E2E0A0053E6
:100D1000657474696E672074696D696E67206D6FA4
:100D200064653A20256420282573290A00437572DA
:100D300072656E742074696D696E67206D6F64658D
:100D40003A20256420282573290A005365747469A4
:100D50006E67206465627567206D6F64653A202553
:100D60006420282573290A0043757272656E742009
:100D70006465627567206D6F64653A20256420287C
:100D80002573290A0053657474696E6720656D7553
:100D90006C6174696F6E206D6F64653A2025642004
:100DA000282573290A0043757272656E7420656D7B
:100DB000756C6174696F6E20747970653A20256472
:100DC00020282573290A0043757272656E742066A7
:100DD000696C655B25645D3A2027257327202825EB
:100DE00073290A004E6F20737563682066696C650D
:100DF0000A0052656D6F7665642066696C653A20FD
:100E0000272573270A0053657474696E6720666925
:100E10006C655B25645D206D6F64653A2025730AFF
:100E20000053657474696E672066696C655B256440
:100E30005D206D6F64653A2025730A005472756EEB
:100E400063617465642066696C653A2027257327A1
:100E500020746F20256C752E2062797465732028AC
:100E60004444290A00457874656E646564206669A7
:100E70006C653A202725732720746F20256C752E0A
:100E800020627974657320284444290A00556E63F2
:100E900068616E6765642066696C653A2027257312
:100EA0002720697320256C752E2062797465732064
:100EB000284444290A00556E6368616E67656420A2
:100EC00066696C653A202725732720697320256C95
:100ED000752E20627974657320287573652045200E
:100EE000636F6D6D616E64290A005472756E636183
:100EF0007465642066696C653A2027257327207421
:100F00006F20256C752E20627974657320285344F8
:100F1000290A00457874656E6465642066696C65AD
:100F20003A202725732720746F20256C752E2062A8
:100F30007974657320285344290A00556E636861EB
:100F40006E6765642066696C653A202725732720E3
:100F5000697320256C752E2062797465732028537F
:100F600044290A00556E6368616E6765642066698E
:100F70006C653A202725732720697320256C752E10
:100F80002062797465732028757365204620636F2D
:100F90006D6D616E64290A0043757272656E74200E
:100FA00066696C655B25645D3A20272573270A0016
:100FB0005741524E494E473A2066696C6520736925
:100FC0007A65204444206D6F756E74656420696E87
:100FD000206D6F64652052583031210A005741520C
:100FE0004E494E473A2066696C652073697A6520E0
:100FF0006E6F74205344206F72204444202E2E2E96
:101000002075736520452F4620636F6D6D616E649A
:1010100020746F20636F7272656374210A005365D8
:101020007474696E672066696C655B25645D3A203F
:10103000272573270A00557064617465642066690A
:101040006C653A202725732720746F20256C752E38
:101050002062797465730A00557064617465642058
:1010600066696C653A202725732720746F20256CEC
:10107000752E2062797465730A000A005E550A00B5
:1010800000002200250028002B002E003100340033
:1010900002010000050108010B01000020002300EF
:1010A000260029002C002F0032000001000003015F
:1010B0000601090100000A0B02090C0D0E080703C6
:1010C000040100000000000000000000000000001B
:1010D0000000000000000000000000000000000010
:1010E00012111000000000000000000000000000CD
:1010F00000000000000000000000000021002400AB
:1011000027002A002D0030003300010100000401F7
:1011100007010A01010210202008081020401020B9
:1011200040800201020108040201010204081020AB
:1011300040808040201008040201800402018040A9
:101140002010080402010804020101020408102012
:1011500040800102040810204080050505050705B0
:1011600008080808020202020A0A08080404040423
:10117000010101010101010103030303030303034F
:10118000040707070C0C0C0C0C0C0C0C02020202DE
:1011900006060606060606060B0B0B0B0B0B0B0BC7
:1011A000436865636B20534420666F726D61742ED3
:1011B000002C30580053644572726F723A203058D8
:1011C000004E6F20636172642C2077726F6E67200F
:1011D000636869702073656C6563742070696E2C38
:1011E000206F7220776972696E67206572726F7204
:1011F0003F00446F206E6F74207265666F726D6180
:1012000074207468652053442E00626567696E28F7
:1012100029206661696C65640053443A20766F6CDE
:1012200053697A6542797465733D256C754D420A40
:101230000053443A20766F6C436C75737465724347
:101240006F756E743D256C750A0053443A20766FB5
:101250006C4279746573506572436C757374657212
:101260003D256C750A0053443A20766F6C547970B2
:10127000653D46415425640A0053443A2063617237
:101280006453697A653D256C754D420A0053443AB2
:101290002063617264547970653D534425640A008B
:1012A00053443A206C696256657273696F6E3D25CE
:1012B000642E25642E25640A002E2E2E207365745C
:1012C00075702066696C652070726F6365737369F1
:1012D0006E6720636F6D706C657465210A0A00503B
:1012E000726F63657373696E6720736574757020C0
:1012F00066696C652027257327202E2E2E0A00494B
:101300006E697469616C697A6174696F6E20636F6C
:101310006D706C6574652E0A004E6F2076616C6985
:1013200064204D6963726F5344206361726420646A
:10133000657465637465642E0A0056616C69642087
:101340004D6963726F5344206361726420646574F5
:1013500065637465642E0A000A5258303220456D68
:10136000756C61746F7220257320284944452025CF
:10137000752E25752E25752F67636320257329200B
:101380002D202573202D2025730A00456E7465726B
:1013900020427574746F6E20507265737365640AB1
:1013A00000446F776E20427574746F6E20507265C2
:1013B000737365640A00557020427574746F6E20F3
:1013C000507265737365640A004D656E752F4573C1
:1013D0006320427574746F6E205072657373656418
:1013E0000A00530A00542025640A004D2025640A8F
:1013F00000442025640A0025632025640A00256432
:101400002025730A0047656E65726174696E6720F6
:1014100073657475702066696C6520272573270ACB
:101420000000B8719E7B11241FBECFEFD1E2DEBF5A
:10143000CDBF00E00CBF14E0A0E0B2E0E6E6F6E0CD
:1014400001E00BBF02C007900D92A43EB107D9F78F
:1014500021E1A4EEB4E001C01D92A13EB207E1F784
:101460001AE0C2E1DAE000E006C021970109802F0E
:10147000FE010E947580C131D10780E00807A9F7FD
:101480000E9407730C9421830C94000090E080E08C
:10149000089590E080E00895653048F470E0660FAC
:1014A000771F680F791FFB018181928108956B304E
:1014B00048F470E0660F771F680F791FFB01848185
:1014C000958108956D3049F070E0660F771F680FC1
:1014D000791FFB0186819781089590E080E008954F
:1014E000DC01ED91FC910190F081E02D1994AF9217
:1014F000BF92CF92DF92EF92FF920F931F93CF9301
:10150000DF936C017B018B01040F151FEB015E0162
:10151000AE18BF08C017D10759F06991D601ED91F7
:10152000FC910190F081E02DC6011995892B79F786
:10153000C501DF91CF911F910F91FF90EF90DF9048
:10154000CF90BF90AF900895FC01538D448D252F0F
:1015500030E0842F90E0821B930B541710F0CF964D
:10156000089501970895FC01918D828D981761F07F
:10157000A28DAE0FBF2FB11D5D968C91928D9F5F96
:101580009F73928F90E008958FEF9FEF0895FC0175
:10159000918D828D981731F0828DE80FF11D858D28
:1015A00090E008958FEF9FEF0895FC01918D228DBB
:1015B000892F90E0805C9F4F821B91098F73992740
:1015C00008958CEA99E00E94D50A21E0892B09F45C
:1015D00020E0822F0895FC01A48DA80FB92FB11D22
:1015E000A35ABF4F2C91848D90E001968F73992759
:1015F000848FA689B7892C93A089B1898C91837037
:1016000080648C93938D848D981306C00288F3892F
:10161000E02D80818F7D80830895EF92FF920F935C
:101620001F93CF93DF93EC0181E0888F9B8D8C8D8E
:1016300098131AC0E889F989808185FF15C09FB782
:10164000F894EE89FF896083E889F9898081837045
:10165000806480839FBF81E090E0DF91CF911F91F4
:101660000F91FF90EF900895F62E0B8D10E00F5F15
:101670001F4F0F731127E02E8C8D8E110CC00FB6EB
:1016800007FCFACFE889F989808185FFF5CFCE0183
:101690000E94EB0AF1CFEB8DEC0FFD2FF11DE35A09
:1016A000FF4FF0829FB7F8940B8FEA89FB89808106
:1016B0008062CFCFCF93DF93EC01888D8823B9F080
:1016C000AA89BB89E889F9898C9185FD03C080814D
:1016D00086FD0DC00FB607FCF7CF8C9185FFF2CFCA
:1016E000808185FFEDCFCE010E94EB0AE9CFDF912B
:1016F000CF91089580E090E0892B29F00E94E10AC3
:1017000081110E94000080E090E0892B49F080E088
:1017100090E0892B29F00E94000081110E940000B6
:1017200080E090E0892B49F080E090E0892B29F05F
:101730000E94000081110E94000080E090E0892B4F
:1017400049F080E090E0892B29F00E94000081118F
:101750000C94000008958150823108F05AC0E82F9F
:10176000F0E08827E954F44F8F4F0C947580D70B25
:10177000DB0BC90BCF0BD30B090CDE0BE40BE80B17
:10178000EE0BF20BF60BFC0B000C090C040C0A0C14
:101790000E0C809180008F77809380000895809157
:1017A00080008F7DF9CF80918000877FF5CF84B551
:1017B0008F7784BD089584B58F7DFBCF8091B00075
:1017C0008F778093B00008958091B0008F7DF9CF1E
:1017D000809190008F778093900008958091900081
:1017E0008F7DF9CF80919000877FF5CF8091A00009
:1017F0008F778093A00008958091A0008F7DF9CF0E
:101800008091A000877FF5CF809120018F77809312
:1018100020010895809120018F7DF9CF80912001D2
:10182000877FF5CFCF93DF93282F30E0F901EC5479
:10183000FF4E8491F901EC5EFE4ED491F901E65A17
:10184000FE4EC491CC23A1F081110E94AB0BEC2F72
:10185000F0E0EE0FFF1FE656FF4EA591B491EC911C
:10186000ED2381E090E009F480E0DF91CF910895CD
:1018700080E090E0FACF1F93CF93DF93282F30E0E2
:10188000F901EC54FF4E8491F901EC5EFE4ED491C7
:10189000F901E65AFE4EC491CC23A9F0162F81110E
:1018A0000E94AB0BEC2FF0E0EE0FFF1FE058FF4E55
:1018B000A591B4918FB7F894EC91111108C0D0950F
:1018C000DE23DC938FBFDF91CF911F910895DE2B34
:1018D000F8CFCF93DF9390E0FC01EC5EFE4E2491B5
:1018E000865A9E4EFC0184918823C9F090E0880FAF
:1018F000991FFC01E650FF4EA591B491FC01E05800
:10190000FF4EC591D49161110DC09FB7F8948C9191
:10191000209582238C938881282328839FBFDF9181
:10192000CF910895623051F49FB7F8943C91822F83
:10193000809583238C93E8812E2BEFCF8FB7F8947B
:10194000EC912E2B2C938FBFEACF3FB7F894809168
:10195000BF059091C005A091C105B091C20526B503
:10196000A89B05C02F3F19F00196A11DB11D3FBFD7
:10197000BA2FA92F982F8827BC01CD01620F711DA6
:10198000811D911D42E0660F771F881F991F4A95A0
:10199000D1F708958F929F92AF92BF92CF92DF922C
:1019A000EF92FF926B017C010E94A50C4B015C0140
:1019B000C114D104E104F104B9F00E94A50C681926
:1019C00079098A099B09683E73408105910580F376
:1019D00021E0C21AD108E108F10888EE880E83E000
:1019E000981EA11CB11CE4CFFF90EF90DF90CF9028
:1019F000BF90AF909F908F9008952FB7F89460910B
:101A0000BB057091BC058091BD059091BE052FBFAF
:101A100008950895DC01ED91FC910088F189E02D95
:101A20001994DC01ED91FC910190F081E02D199465
:101A3000FF920F931F93CF93DF938C01EB01F42E52
:101A4000642FDC0111968D919C910E940A0DDC019E
:101A50001296ED91FC911397268137812C233D231B
:101A6000232B71F0ED91FC910284F385E02D2F2D55
:101A7000A801BE01DF91CF911F910F91FF901994A2
:101A800090E080E0DF91CF911F910F91FF9008953A
:101A900024E06202B0011124DC01ED91FC91E60F1B
:101AA000F71F838108956F927F928F929F92AF92DA
:101AB000CF92DF92EF92FF920F931F93CF93DF931A
:101AC000EC01F62EEE81FF81662E660F7708C301CA
:101AD000880F991F880F991F0190F081E02DE80F62
:101AE000F91F6081418182819381042E000C550B86
:101AF000062E000C770B8A01090F111D97FD1A9510
:101B0000015011099B01280F311D87FD3A95215085
:101B10003109E881F9811F920284F385E02D882440
:101B20008394912CA12CD12CC12CB0E2EB2ECE01B0
:101B30001995E881F9810288F389E02D2F2D40E085
:101B400060E0CE011995EE81FF81660C771C8281E1
:101B50009381680E791EF301118210820F90DF913C
:101B6000CF911F910F91FF90EF90DF90CF90AF90AA
:101B70009F908F907F906F9008952F923F924F92F9
:101B80005F926F927F928F929F92AF92BF92CF920D
:101B9000EF92FF920F931F93CF93DF93EC012B01F2
:101BA0005A01122FE881F9810488F589E02D00E0BF
:101BB00021E030E040E061E070E0199584E0180237
:101BC00010011124D5011296ED91FC91828184FFC0
:101BD0005EC0912C812CD501ED91FC910190F0819A
:101BE000E02DC5011995082E000C990B8816990651
:101BF0000CF0D8C0D501ED91FC910088F189E02D61
:101C0000682DC50119953C01FC0124813581E881CD
:101C1000F9810488F589E02D00E040E061E070E0A2
:101C2000CE011995D30114962D913C91E881F9814B
:101C30000688F789E02DE12E40E0682DCE01199548
:101C4000F30124813581E881F9810488F589E02D4B
:101C500040E061E070E0CE011995D301ED91FC9177
:101C60000480F581E02DAE81BF810D90BC91A02D47
:101C7000A20DB31D1296EC90C12E082D9E0140E0DE
:101C8000B201C3011995BFEF8B1A9B0AA4CFE8815B
:101C9000F9810088F189E02D612FCE011995E88145
:101CA000F9810288F389E02D212F40E060E0CE0128
:101CB0001995712C612F8E819F810E94480D781695
:101CC0000CF070C0D501ED91FC910190F081E02DF8
:101CD000C501199578160CF065C0D501ED91FC9100
:101CE0000088F189E02D672DC50119954C01FC0193
:101CF000E480F580E881F9810484F585E02DC12C2C
:101D000000E030E020E0412F672DCE011995E881F9
:101D1000F9810288F389E02D212F472D60E0CE0163
:101D20001995D40114962D913C91E881F98104888C
:101D3000F589E02D40E061E070E0CE011995F401F5
:101D400024813581E881F9810688F789E02DE12E2B
:101D500040E0672DCE011995D40114962D913C9148
:101D6000E881F9810488F589E02D40E061E070E0C8
:101D7000CE011995D401ED91FC910480F581E02DFF
:101D8000AE81BF810D90BC91A02DA20DB31D129606
:101D9000EC90C12E072D9E0140E0B201C4011995BF
:101DA000739488CFDF91CF911F910F91FF90EF90A7
:101DB000CF90BF90AF909F908F907F906F905F90EB
:101DC0004F903F902F9008950F931F93CF93DF93E1
:101DD0008C01D0E0C0E0D8018D919C911197C8177B
:101DE000D9079CF4CE01880F991F1296ED91FC91B2
:101DF000E80FF91F80819181DC01ED91FC9106844F
:101E0000F785E02D19952196E6CFDF91CF911F91AF
:101E10000F9108955F926F927F928F929F92AF92EF
:101E2000BF92CF92DF92EF92FF920F931F93CF93C7
:101E3000DF93CDB7DEB76C01F62E572E4A0139017C
:101E4000081519050CF1D601ED91FC910288F38972
:101E5000E02D20E0482D6F2DC6011995AF2CB52C33
:101E60006A147B046CF0D601ED91FC910190F08135
:101E7000E02D6E2DC6011995BFEFAB1ABB0AF0CF4E
:101E80008FEF881A980ADCCFC601DF91CF911F919E
:101E90000F91FF90EF90DF90CF90BF90AF909F9009
:101EA0008F907F906F905F900895EF92FF920F93C5
:101EB0001F93CF93DF93EC01F62EE42EE881F98196
:101EC0000288F389E02D242F462F60E0199510E059
:101ED00000E0EE81FF810190F081E02D8281082EEB
:101EE000000C990B081719073CF460E2CE010E9420
:101EF000700A0F5F1F4FEDCFE881F9810288F389E7
:101F0000E02D2E2D4F2D60E0CE01DF91CF911F915E
:101F10000F91FF90EF901994CF93DF93CDB7DEB779
:101F2000DF91CF910895EF92FF920F931F93CF937C
:101F3000DF93EC01142F7901E881F9810488F58998
:101F4000E02D64E070E01995E881F9810190F0815D
:101F5000E02D60E2112331F06091520AEF2811F078
:101F60006091510ACE01DF91CF911F910F91FF90A7
:101F7000EF9019940895BF92CF92DF92EF92FF9263
:101F80000F931F93CF93DF937C018B01B42EFB0142
:101F9000C42E440FDD08EF012196608161110EC04F
:101FA000C01BD10B8C2F8150DF91CF911F910F91CE
:101FB000FF90EF90DF90CF90BF900895BB2029F065
:101FC000E01BF10BEC15FD055CF7D701ED91FC91E1
:101FD0000190F081E02DC7011995FE01DCCF80E072
:101FE000089508957F928F929F92AF92BF92CF9261
:101FF000DF92EF92FF920F931F93CF93DF93EC0149
:102000005B017A01822E1E82EA81FB8182819381AB
:102010006C0124E1C222DD24C114D10429F110E0B5
:1020200000E0E881F9810190F081E02DCE01199561
:10203000082E000C990B081719070CF0B5C0E881A1
:10204000F9810088F189E02D602FCE011995DC011E
:10205000ED91FC910280F381E02D20E0A701B50114
:1020600019950F5F1F4FDDCFDB011396ED91FC91AA
:102070009780B92D25E0B2028001112482FF13C0A0
:1020800084819581B80165507109680F791FDB0162
:1020900011968D919C91DC01ED91FC910280F38170
:1020A000E02D282D199560E0F701868197810E9427
:1020B000480DEA81FB8120853185D5011396ED918C
:1020C000FC9191E021FD0CC09085992309F46AC030
:1020D0003695279536952795B1E02B27922F91704D
:1020E00024813581020F131FD8011196ED91FC91C7
:1020F0000280F381E02D42815381882009F454C08D
:10210000292D990C330B4471552761E070E0452B64
:1021100011F470E060E0261B370BF7014481558114
:10212000240F351FD9017C90882E891A082C000CA9
:102130009908172D1C0DC814D904B4F5E881F9814C
:102140000190F081E02DCE01199518176CF5E8810A
:10215000F9810088F189E02D612FCE011995DC010C
:10216000ED91FC910280F381E02D20E0A701B50103
:102170001995E881F9810088F189E02D612FCE0160
:102180001995DC01ED91FC910680F781E02D00E0CE
:1021900020E0A701B5011995811106C0BFEFCB1A48
:1021A000DB0AC7CF90E09CCFDF91CF911F910F91B9
:1021B000FF90EF90DF90CF90BF90AF909F908F9067
:1021C0007F9008953F924F925F926F927F928F928D
:1021D0009F92AF92BF92CF92DF92EF92FF920F93B6
:1021E0001F93CF93DF9300D01F92CDB7DEB7DC01F2
:1021F00016963C903110FBC0102F7A016B019C8326
:102200008B83FC010280F381E02DFA83E9838281D4
:102210009381AC0144715527452B79F1B12CA12C48
:10222000AB81BC81ED91FC9111970190F081E02D83
:10223000CD011995082E000C990BA816B9060CF0C3
:102240004DC0AB81BC81ED91FC9111970088F18963
:10225000E02D6A2DCD011995DC01ED91FC910680F0
:10226000F781E02D012F20E0A701B601199581111A
:10227000BEC0BFEFAB1ABB0AD3CFFB014181528175
:102280006B817C816417750749F5222339F18380BE
:102290009480D40117960C91179714964D905C90EA
:1022A000B5E00B02300111245C01E4E0AE22BB2456
:1022B00082FF2BC0B30165507109640D751DDB01F0
:1022C00011968D919C91DC01ED91FC910680F78136
:1022D000E02D012F21E0A7011995382E832D0F90B5
:1022E0000F900F900F90DF91CF911F910F91FF9062
:1022F000EF90DF90CF90BF90AF909F908F907F90A6
:102300006F905F904F903F90089560E0F701868155
:1023100097810E94480DA981BA8118962D913C9110
:1023200021FD61C0F4019085992309F45EC03695C2
:10233000279536952795F1E02F272170882E821A50
:10234000402F000F550B460C571CF201A181B281A2
:1023500012960D90BC91A02D12968D919C91847136
:10236000992721E030E0892B11F430E020E0CA0108
:10237000821B930BD7011496ED91FC91E80FF91F86
:102380007080082C000C9908072D0A0DA814B904B8
:102390000CF0A4CFAB81BC81ED91FC911197019021
:1023A000F081E02DCD01199508170CF097CFAB8186
:1023B000BC81ED91FC9111970088F189E02D602F8F
:1023C000CD011995DC01ED91FC910680F781E02D9E
:1023D000012F20E0A701B6011995811108C0BFEFB8
:1023E000AB1ABB0AD1CF21E0A9CF20E0A7CF33247D
:1023F000339474CFDC01CB01BA011296ED91FC91BC
:1024000013970190F081E02DAD011994FC018681B4
:102410000895DC0117962C9117971496ED91FC9175
:10242000B5E02B02E00DF11D112481819281089508
:10243000CF93DF93EC010E9409122F81AC81BD8103
:1024400035E02302A00DB11D1124EC01E881F981D2
:102450000088F189E02D6C91DF91CF911994209142
:102460007005260F3327331F21323105ECF42091FC
:102470009405FC0190E080E0243069F082E008954A
:10248000A09170052191AC01405B5A4FA40FB52F6C
:10249000B11D2C930196861798F380917005680FF3
:1024A0006093700580E0089581E0089508958FEFAE
:1024B0009FEF08958FEF9FEF08958091490590E079
:1024C0009195819591090895CF93DF93CB01EA010E
:1024D000642F0E942F12CE01DF91CF910895CF93E8
:1024E000DF931F92CDB7DEB7698361E0CE0101961D
:1024F0000E942F1281E090E00F90DF91CF9108951C
:1025000001976A307105E0F033E3639F6627030E9D
:10251000611D202D739F7727600D711D1124260FDB
:10252000671F711D270F611D711D76956795279592
:102530003AE0239F212D1124205DFC012083E0CF70
:10254000605DFC0160830895CF93DF93EB0144232A
:1025500019F0FC014293CF01BE010E9480122A971C
:1025600020F4FC0180E38293CF01DF91CF910895A5
:10257000AF92BF92CF92DF92EF92FF920F931F9391
:10258000CF93DF93CDB7DEB760970FB6F894DEBF79
:102590000FBECDBF6C018B015A01CE0141967C016B
:1025A000672B09F44EC0BA0125E0769567952A9508
:1025B000E1F76F73772740E00E94A4126B2D6695B8
:1025C000669566954AE370E00E94A41220E2DC0161
:1025D0002E93CD01B8016F71772740E00E94A412BD
:1025E000B80135E0769567953A95E1F76F707727F2
:1025F0004DE20E94A412B801672F772766956454B4
:10260000784F4DE20E94A412A701481B590BD60136
:10261000ED91FC910280F381E02DBC01C60119957A
:1026200060960FB6F894DEBF0FBECDBFDF91CF919D
:102630001F910F91FF90EF90DF90CF90BF90AF90E0
:102640000895FC0120E2CE01019622938E179F0788
:10265000E1F7C7014097D8CF8EBD00000DB407FE4B
:10266000FDCF8EB50895FC01928183819CBD8DBD07
:1026700081E0878360E085810E943B0C8FEF0C94A2
:102680002C138FEF0C942C13CF93DF93EC010E944B
:10269000FD0CC60FD71F0E9441138F3F59F00E94B7
:1026A000FD0CCE01861B970B97FFF5CF80E0DF91E5
:1026B000CF91089581E0FBCFCF93DF93FC01278179
:1026C000222349F0EC0161E085810E943B0C8FEFF1
:1026D0000E942C131F82DF91CF9108951F93CF93F7
:1026E000DF93EC0188E592E00E944413182F8823C1
:1026F00061F08DEF0E942C13CE010E945C131886AE
:10270000812FDF91CF911F9108958FE18E83CE01AC
:102710000E945C13F5CF0F931F93CF93DF938C012F
:10272000862FEA010E942C13FE0181918EBDDE5F8F
:10273000EC17FD0741F08191000000000DB407FE89
:10274000FDCF8EBDF5CF0DB407FEFDCF8FEF0E94FC
:102750002C138FEF0E942C130E944113F8018187E4
:102760008F71853059F081E28683C8010E945C1325
:1027700080E0DF91CF911F910F91089581E0F9CF13
:10278000CF92DF92EF92FF920F931F93CF93DF933D
:10279000EC018B017A010E94FD0C6B0124EDC21A41
:1027A0002EEFD20A0E94411389878F3FB1F40E9415
:1027B000FD0CC601861B970B97FFF4CF8EE18E832D
:1027C000CE010E945C1380E0DF91CF911F910F91A9
:1027D000FF90EF90DF90CF9008958E3F11F089E148
:1027E000EECF8FEF8EBDF801C7013FEF019749F0A3
:1027F000000000000DB407FEFDCF2EB53EBD2193B5
:10280000F5CF81E0E81AF1080E0D1F1D0DB407FE8B
:10281000FDCF8EB5F801808319860E9441130E9476
:10282000411381E0D1CFDF92EF92FF920F931F937C
:10283000CF93DF93EC01162F022FF32EE42ED52E2B
:102840000E9443178823D1F18F81811103C0CE01EB
:102850000E94331311112AC0812F80640E942C130F
:102860008D2D0E942C138E2D0E942C138F2D0E94D3
:102870002C13802F0E942C1387E8111101C085E9C9
:102880000E942C130E9441130AE010E00E944113A1
:10289000898787FF03C001501109C1F7DF91CF91EC
:1028A0001F910F91FF90EF90DF9008951C30A1F2DF
:1028B0008CE291E00E9444138111CECF8FEFEECFD6
:1028C0008F929F92AF92BF92CF92DF92EF92FF9240
:1028D0000F931F93CF93DF93EC014A015B016901D2
:1028E0008885823049F48B859C85AD85BE858815A9
:1028F0009905AA05BB0559F18A85A5019401833084
:1029000039F089E0220F331F441F551F8A95D1F7F4
:1029100069E1CE010E941314882399F08EE08E8322
:10292000CE010E945C1380E0DF91CF911F910F9147
:10293000FF90EF90DF90CF90BF90AF909F908F90DF
:10294000089582E088878B869C86AD86BE86F12CB2
:10295000E12CE016F106A9F088E592E00E9444130C
:10296000811102C085E2DBCFA6016CEFCE010E948F
:102970008B138823A9F28FEFE81AF80A8EEFD81A82
:10298000E8CF8B859C85AD85BE858E0D9F1DA11DD5
:10299000B11D8B879C87AD87BE878F858111C4CF82
:1029A000CE01DF91CF911F910F91FF90EF90DF90BB
:1029B000CF90BF90AF909F908F900C946E13EF923A
:1029C000FF920F931F93CF93DF93EC0179011F8543
:1029D000112369F001E010E00E946014182F812F8C
:1029E000DF91CF911F910F91FF90EF9008958A850D
:1029F000833039F089E0440F551F661F771F8A9591
:102A0000D1F79A01AB0168E1CE010E94131488232B
:102A100031F08DE08E83CE010E945C13E0CFA701E0
:102A20006EEFCE010E948B138823A9F388E592E014
:102A30000E944413082F84E2002361F320E030E079
:102A4000A9016DE0CE010E941314882311F08AE0E1
:102A5000E1CF0E9441138111FACFCE010E945C1395
:102A6000102FBDCFEF92FF921F93CF93DF93FC0106
:102A7000208111E020FF12C0EC017C01FBE0EF0E91
:102A8000F11C4F81588569857A85970189819A81E2
:102A90000E94DF14182F811108C010E0812FDF91F0
:102AA000CF911F91FF90EF900895888181FD04C020
:102AB00088818E7F8883F2CF4F81588569857A859A
:102AC0008B819C81AD81BE81480F591F6A1F7B1F7E
:102AD000970189819A810E94DF148111E9CFDDCFAE
:102AE000CF93DF93EC01188620E030E0A9016CE081
:102AF0000E941314882349F089E08E83CE010E943E
:102B00005C1380E0DF91CF910895CE010E945C13A9
:102B100081E0F8CF8F929F92AF92BF92CF92DF92D7
:102B2000EF92FF920F931F93CF93DF93EC014A0133
:102B30005B0169018885813049F48B859C85AD8571
:102B4000BE8588159905AA05BB0559F18A85A50199
:102B50009401833039F089E0220F331F441F551F41
:102B60008A95D1F762E1CE010E941314882399F06F
:102B70008CE08E83CE010E945C1380E0DF91CF91C8
:102B80001F910F91FF90EF90DF90CF90BF90AF908B
:102B90009F908F90089581E088878B869C86AD8674
:102BA000BE86F12CE12CE016F10671F040E052E017
:102BB000B601CE010E94C013882301F38FEFE81AFB
:102BC000F80A8EEFD81AEFCF8B859C85AD85BE8530
:102BD0008E0D9F1DA11DB11D8B879C87AD87BE8764
:102BE0008F858111CBCFCE01DF91CF911F910F91B6
:102BF000FF90EF90DF90CF90BF90AF909F908F901D
:102C00000C9470158F929F92AF92BF92FF920F9388
:102C10001F93CF93DF93DC011196ED91FC91EF2B85
:102C200061F490E080E0DF91CF911F910F91FF90D0
:102C3000BF90AF909F908F900895F22E4A015B0154
:102C4000EC018F819885A985BA8588159905AA0513
:102C5000BB0561F0CE010E943215882311F3F2FE0C
:102C60000DC018828F829886A986BA862F2D237070
:102C7000F880F22AF882CE010B96D5CF01E010E061
:102C80009E01255F3F4FB501A40189819A810E9471
:102C90008A158111E6CFC5CF2F923F924F925F9256
:102CA0006F927F928F929F92AF92BF92CF92DF925C
:102CB000EF92FF921F93CF93DF9300D000D000D00C
:102CC0001F92CDB7DEB79A87898749835A836B8372
:102CD0007C836A017B0122E0C21AD108E108F10875
:102CE000452B462B472B41F4E985FA85E55FFD4FDF
:102CF000C080D180E280F38089859A85855E9D4F72
:102D000098878F83FC0180819181A281B381C8164D
:102D1000D906EA06FB0618F0C12CD12C7601D701A2
:102D2000C60143E0B695A795979587954A95D1F743
:102D30001C01F1E03F2211E0C6018770992701C014
:102D4000110F8A95EAF726013701460157012985B7
:102D50003A85295E3D4F3E832D83ED81FE81808142
:102D60009181A281B381B501A4013CE0769567957C
:102D7000579547953A95D1F7480F591F6A1F7B1F02
:102D800020E089859A850E940216009709F472C096
:102D9000FC01E20DF31D2081FFEF8F1A9F0AAF0A9D
:102DA000BF0A322F3123D1F5B501A40144195509C9
:102DB00066097709413051056105710589F58981F9
:102DC0009A81AB81BC81892B8A2B8B2B49F4A985F5
:102DD000BA85A55FBD4FFD01408251826282738238
:102DE000C301B2016E5F7F4F8F4F9F4F2A960FB680
:102DF000F894DEBF0FBECDBFDF91CF911F91FF9042
:102E0000EF90DF90CF90BF90AF909F908F907F908A
:102E10006F905F904F903F902F900895240135015F
:102E2000C814D904EA04FB0449F1AF81B8854D9177
:102E30005D916D917C9184169506A606B70680F487
:102E4000110F09F0A9CF91012F5F3F4F312C212C99
:102E500011E02115B2E03B0708F07FCF190198CFB0
:102E6000212C22E0322E412C512C3201812C912C2C
:102E70005401E9CF60E070E0CB01B8CF61E070E0D1
:102E800080E090E0B3CFFC012085223011F40C9457
:102E90006E13213011F40C94701581E008958F9217
:102EA0009F92AF92BF92CF92DF92EF92FF920F93D9
:102EB0001F93423051056105710560F480E01F9158
:102EC0000F91FF90EF90DF90CF90BF90AF909F90C9
:102ED0008F900895FC01C08CD18CE28CF38CC416C9
:102EE000D506E606F70650F3480159016A018581C7
:102EF000803229F584899589A689B78917E0769566
:102F00006795579547951A95D1F7480F591F6A1F2E
:102F10007B1F23E0CF0180960E940216009771F27A
:102F2000CC0CDD1CCC0CDD1CF1E0DF228C0D9D1DDA
:102F3000FC0180829182A282B38281E0C0CF803185
:102F400009F0BCCF44895589668977894D0D511D9B
:102F5000611D711D23E0CF0180960E94021600972B
:102F600009F4ACCFCC0CDD1CF1E0DF22C80ED91E79
:102F7000F60111830083E1CFCF92DF92EF92FF92AF
:102F80000F931F93CF93DF93423051056105710575
:102F900050F48FEFDF91CF911F910F91FF90EF9041
:102FA000DF90CF900895FC01C08CD18CE28CF38C23
:102FB000C416D506E606F70660F389016A01EC013E
:102FC0008581803299F584899589A689B789E7E05A
:102FD0007695679557954795EA95D1F7480F591F0C
:102FE0006A1F7B1F22E0CE0180960E940216009786
:102FF00081F2CC0CDD1CCC0CDD1CF1E0DF228C0D51
:103000009D1DFC0180819181A281B381488D598DE4
:103010006A8D7B8D481759076A077B0730F1F801E5
:1030200080839183A283B38381E0B4CF803109F0A0
:10303000B0CF44895589668977894D0D511D611D31
:10304000711D22E0CF0180960E940216009709F4BC
:10305000A0CFCC0CDD1CF1E0DF22C80ED91EF6019A
:1030600080819181B0E0A0E0D1CF80E093CF9F92AA
:10307000AF92BF92CF92DF92EF92FF920F931F9386
:10308000CF93DF9300D01F92CDB7DEB75C016A010A
:103090007B019E012F5F3F4FB701A601C5010E9432
:1030A000BC17982E87FD34C000E010E09801B701EE
:1030B000A601C5010E944F17882351F1F5014085F3
:1030C000518562857385C416D506E606F70650F469
:1030D000F1E0CF1AD108E108F108F501C086D186E8
:1030E000E286F386C980DA80EB80FC809110D1CF34
:1030F0000F900F900F900F90DF91CF911F910F9134
:10310000FF90EF90DF90CF90BF90AF909F90089589
:1031100080E0EECFFC019C01255F3F4F80E080FB0B
:10312000879587F99191890FE217F307C1F7089501
:103130004F925F926F927F928F929F92AF92BF92C7
:10314000CF92DF92EF92FF920F931F93CF93DF9373
:10315000EC014A015B014C845D846E847F8428818C
:10316000222309F45CC0488959896A897B894815FA
:1031700059056A057B0581F081149104A104B1040D
:1031800069F41C861D861E861F86888A998AAA8AEB
:10319000BB8A8A818F7D8A8381E046C023FF2CC051
:1031A000888D998DAA8DBB8D88159905AA05BB05BB
:1031B000B0F1EE81FF813481375F7501640181E0F8
:1031C000C81AD108E108F108032E04C0F694E79468
:1031D000D794C7940A94D2F78A8186FF36C08C8D23
:1031E0009D8DAE8DBF8D8C0D9D1DAE1DBF1D8C8721
:1031F0009D87AE87BF87C9CF26FFDBCFEE81FF81DA
:103200008681978125E0880F991F2A95E1F7B0E024
:10321000A0E088159905AA05BB0508F0B6CF4C8635
:103220005D866E867F8680E0DF91CF911F910F9142
:10323000FF90EF90DF90CF90BF90AF909F908F90D6
:103240007F906F905F904F900895DB01CA010197C6
:10325000A109B10904C0B695A795979587953A95A8
:10326000D2F7C816D906EA06FB0620F0452B462BF6
:10327000472B49F527FF22C0848D958DA68DB78DEC
:103280008C879D87AE87BF878E01045F1F4FC11457
:10329000D104E104F10409F478CF4C855D856E8595
:1032A0007F8598018E819F810E94BC1791E0C91A89
:1032B000D108E108F108181654F3B1CF8C8D9D8D1B
:1032C000AE8DBF8DDDCFC81AD90AEA0AFB0ADCCF62
:1032D000CF93DF93EC01262F4C895D896E897F891E
:1032E0008E819F8180960E940216009759F02C8152
:1032F0003D812F70332745E0220F331F4A95E1F7B8
:10330000820F931FDF91CF910895CF92DF92EF92BA
:10331000FF920F931F93CF93DF93FC01EB018A0180
:103320009081992309F44BC0907C71F08FE28883DF
:10333000198281E090E0DF91CF911F910F91FF9072
:10334000EF90DF90CF90089560E0CF010E94681960
:10335000DC010097A1F16C0130E068E090E0F6013B
:103360002081383099F4203221F160E12EE2492F9A
:1033700050E07A018FEFE81AF80AE016F106F8F447
:103380009F5F4C0F5D1FFA01208310C0FFEFCF1A23
:10339000DF0A8FEB820F8A3138F41C968C911C97D0
:1033A000862311F0205EE3CF203209F73F5F3C30E7
:1033B000B1F6892F90E0C80FD91F1882BCCF1882B0
:1033C00090E080E0B8CF3F924F925F926F927F92F1
:1033D0008F929F92AF92BF92CF92DF92EF92FF9225
:1033E0000F931F93CF93DF9300D01F92CDB7DEB71B
:1033F0005C01FC01448455846684778486809780D0
:10340000F401C084D184E284F384C414D504E604B6
:10341000F704C0F47301620110E0FFEFCF1ADF0A76
:10342000EF0AFF0AF401808D918DA28DB38D8C156A
:103430009D05AE05BF0540F4111132C0C084D18492
:10344000E284F38411E0E9CF4C145D046E047F0440
:1034500039F19E012F5F3F4FB701A601C4010E94C1
:10346000BC1787FD1DC08823C1F289819A81AB8179
:10347000BC81892B8A2B8B2B81F6112329F0F40137
:10348000C086D186E286F3860FEF1FEF2FEF3FE075
:10349000B701A601C4010E944F17382E811118C030
:1034A000312C832D0F900F900F900F90DF91CF91C3
:1034B0001F910F91FF90EF90DF90CF90BF90AF9052
:1034C0009F908F907F906F905F904F903F90089566
:1034D0004114510461047104B9F4F501C486D58620
:1034E000E686F78682814114510461047104B1F0CB
:1034F000FFEF4F1A5F0A6F0A7F0A4C145D046E04D7
:103500007F0479F08F7B0BC097018601B301A20184
:10351000C4010E944F178111E0CFC2CF8064F50132
:103520008283F501828180688283BBCFCF93DF9352
:10353000EC0180960E943215882331F088819981B0
:10354000DF91CF910C94431780E0DF91CF910895E4
:10355000CF93DF93FC012081211104C081E0DF9132
:10356000CF910895EC01828187FF28C061E0CF01EF
:103570000E946819FC01892B29F489818160898363
:1035800080E0EDCF8081853EC1F38881877383879A
:10359000888183FF08C0888D998DAA8DBB8D848F0B
:1035A000958FA68FB78F8C8D9D8DAE8DBF8D938F90
:1035B000828FB58BA48B8A818F778A838E819F813E
:1035C0000E94961A8823C9F2C9CF8F929F92AF9218
:1035D000BF92CF92DF92EF92FF920F931F934230F0
:1035E00051056105710560F480E01F910F91FF9016
:1035F000EF90DF90CF90BF90AF909F908F90089505
:10360000FC01E55EFD4FC080D180E280F380EFEFEA
:10361000CE1ADE0AEE0AFE0AC416D506E606F7063C
:1036200018F3480159016A01FC01E15FFD4F37E0E1
:1036300076956795579547953A95D1F70081118111
:1036400022813381400F511F621F731F21E00E94AE
:103650000216009749F2CC0CDD1CCC0CDD1CF1E00D
:10366000DF22C80ED91EF60180829182A282B38227
:1036700081E0BBCFCF92DF92EF92FF920F931F9327
:10368000CF93DF93E901FC01E55EFD4F00811181DD
:10369000228133810F5F1F4F2F4F3F4F04171507B4
:1036A0002607370750F48FEFDF91CF911F910F91CD
:1036B000FF90EF90DF90CF9008956A01FC01E15FE9
:1036C000FD4F37E076956795579547953A95D1F731
:1036D0000081118122813381400F511F621F731FAE
:1036E00020E00E9402160097F1F2CC0CDD1CCC0CFD
:1036F000DD1C21E0D222C80ED91EF6018081918105
:10370000A281B3818F3FFFEF9F07AF07BF0731F063
:1037100088839983AA83BB8381E0C6CF80E0C4CF2E
:103720000F931F93CF93DF93EB01E42FDC01AD5D8B
:10373000BD4F4D915D916D917C9113970C811D81D1
:103740002E813F81402351236223732329E0769504
:103750006795579547952A95D1F7088119812A8150
:103760003B8102501109210931091B96FC9104C0CB
:10377000000F111F221F331FFA95D2F7400F511F60
:10378000621F731F57970D911D912D913C91400F12
:10379000511F621F731F2E2F0E940216009729F0DF
:1037A0002C813D813170820F931FDF91CF911F914A
:1037B0000F9108954F925F926F927F928F929F9296
:1037C000AF92BF92CF92DF92EF920F931F93CF935E
:1037D000DF936C0148015901DB01CA010297A1097D
:1037E000B109AC01BD01480D591D6A1D7B1DF601D3
:1037F000E55EFD4F00811181228133810417150799
:103800002607370708F47FC0709740805180628098
:103810007380EE2009F46CC0481659066A067B06D0
:1038200088F0441655066606770660F4401751077F
:103830006207730718F040E050E0BA0140835183FB
:10384000628373839C012770332711E001C0110F3D
:103850002A95EAF72C013D012CE076946794579461
:1038600047942A95D1F7F601E95EFD4F40815181D9
:1038700062817381440D551D661D771D33E0B69539
:10388000A795979587953A95D1F7EC01D1702A01C4
:103890003B012FEF421A520A620A720A21E0C60166
:1038A0000E940216009779F1FC01EC0FFD1FA12F79
:1038B0002081422F4A2331E009F430E03E1519F10E
:1038C0002A272083B1E08B1A9108A108B10861F181
:1038D000AA0F71F73196B301A201D0E0C0E011E068
:1038E000A1E09F01281B390B2115324009F7CFCFEA
:1038F00084159505A605B70508F0A4CF80839183AC
:10390000A283B3839FCF80E0DF91CF911F910F916E
:10391000EF90DF90CF90BF90AF909F908F907F906F
:103920006F905F904F90089581E0EECF4F925F923D
:103930006F927F928F929F92AF92BF92CF92DF92BF
:10394000EF92FF920F931F93CF93DF9300D01F92BC
:10395000CDB7DEB74C016A017B012A013B019E0114
:103960002F5F3F4FB701A601C4010E943A1BA82E4A
:1039700087FD49C000E010E09801B701A601C4012D
:103980000E94E51AB82E8823F1F18FEFC81AD80AE1
:10399000E80AF80AAA2049F089819A81AB81BC81A2
:1039A0008C159D05AE05BF0591F0970186010419A0
:1039B000150926093709E12CB301A201C4010E94AF
:1039C000DA1B882301F149805A806B807C80C98092
:1039D000DA80EB80FC80A110C2CF8B2D0F900F906E
:1039E0000F900F90DF91CF911F910F91FF90EF906B
:1039F000DF90CF90BF90AF909F908F907F906F900F
:103A00005F904F900895B12CE8CF4F925F926F92E4
:103A10007F928F929F92AF92BF92EF92FF920F93FD
:103A20001F93CF93DF93EC0188A199A1488D598D05
:103A30006A8D7B8D4115510561057105F9F04F5F68
:103A40005F4F6F4F7F4F0E944C164B015C0122E08D
:103A500082169104A104B104A8F4F12C8F2DDF91FA
:103A6000CF911F910F91FF90EF90BF90AF909F90DB
:103A70008F907F906F905F904F90089540E050E05E
:103A8000BA01E1CFEE24E39401E010E020E030E061
:103A9000BC01A40188A199A10E94DA1BF82E8823F9
:103AA000E1F2488D598D6A8D7B8D8EA541155105AA
:103AB0006105710539F480648EA7888E998EAA8E6F
:103AC000BB8ECCCF86FF2AC04F5F5F4F6F4F7F4FBB
:103AD000481559056A057B0581F38F7B8EA74C8DB0
:103AE0005D8D6E8D7F8D88A199A1488C598C6A8CD3
:103AF0007B8C441555056605770580F42A013B014A
:103B00002FEF421A520A620A720A930182010E943E
:103B1000E51AB301A2018111E6CF9FCF0FEF1FEF8E
:103B20009801B501A40188A199A10E94E51A8823F2
:103B300009F493CF488D598D6A8D7B8D41155105C0
:103B40006105710509F4B9CF9501840188A199A196
:103B50000E94E51A8111B1CF80CFCF93DF93EC01A2
:103B60000E943215882341F0C55DDD4F888199811F
:103B7000DF91CF910C94431780E0DF91CF910895AE
:103B80002F923F924F925F926F927F928F929F926D
:103B9000AF92BF92CF92DF92EF92FF920F931F935B
:103BA000CF93DF93CDB7DEB762970FB6F894DEBF41
:103BB0000FBECDBF988B8F874801222E3D834E8349
:103BC000352E2B01DC0158962D913D914D915C9144
:103BD0005B972B873C874D875E879C96BC91BF8304
:103BE000BB2309F4E3C0FC01F081F887DC011196E6
:103BF000BC91B987FC01F281FA87DC0113966C90C5
:103C0000139714967C9014971596BC91FC01F6813D
:103C1000F98BFC01F781FA8B288539854A85562D69
:103C2000672D7B2F89899F2F5801C22CDD80EE8064
:103C3000F32C82010E941781F1F09401422D5D2D39
:103C40006E2D732DC201A0E00E942081B1F4AF85DA
:103C5000B88958961D921D921D921C925B97EF8514
:103C6000F8898082918222822D8123833E81348350
:103C700035824682578281E0A4C0EF81E3FF10C005
:103C8000EF85F8892089318942895389648975894A
:103C900086899789DD80EE800E94178108F486C0AE
:103CA000EF85F889A0A0B1A0C501825D9D4FFC0100
:103CB0001081175F9401422D5D816E81732DC201C9
:103CC000AFEF0E940281012F0E94DE80942F852F8A
:103CD000A901692F782F69017B01EF85F88986A5F5
:103CE00086FF0DC0848D958DA68DB78D840F951F91
:103CF000A61FB71F808F918FA28FB38FB0CF28855B
:103D000039854A85562D672D7B2F89899A89AFEF92
:103D10000E9402810E94DE8029833A834B835C8368
:103D200029813A814B815C81C216D306E406F506EF
:103D300068F0288539854A85562D672D7B2F89891E
:103D40009A89A0E00E94208109F05BC0BF81B6FF84
:103D500051C0F501E15EFD4F80819181A281B38167
:103D6000EF85F889808F918FA28FB38F6F847888C9
:103D700038E1630E711CC114D104E104F10409F4AB
:103D80006ECFAF85B88958964D915D916D917C91BC
:103D90005B97930190968D919C910E943A1BB1E0A4
:103DA000CB1AD108E108F10818162CF38B859C85F5
:103DB000AD85BE85EF85F889808F918FA28FB38FF7
:103DC00080E062960FB6F894DEBF0FBECDBFDF91E4
:103DD000CF911F910F91FF90EF90DF90CF90BF9008
:103DE000AF909F908F907F906F905F904F903F909B
:103DF0002F900895EF85F889848D958DA68DB78DC8
:103E0000AFCF29813A814B815C81C21AD30AE40A7F
:103E1000F50AACCF0F931F93F42FE52FA091610FFC
:103E2000B091620F109741F0A9016F2F7E2FCD0145
:103E30001F910F910C949818A091630FB091640F8B
:103E4000109759F0AB0189012F2F3E2FBC01CD01F6
:103E50000E94C01D1F910F91089580E0FBCF9F929B
:103E6000AF92BF92CF92DF92EF92FF920F931F9388
:103E7000CF93DF9300D000D000D0CDB7DEB78C0158
:103E8000942E89E0F801B296DE01119601900D9210
:103E90008A95E1F7F801A0A0B1A0F0E26F9FC00100
:103EA0001124B0E0A0E04D815E816F817885F5013D
:103EB000ED5DFD4FC080D180E280F380C422D52229
:103EC000E622F722C80ED91EEA1EFB1E840F951F9C
:103ED000A61FB71F8D839E83AF83B8873B968081D3
:103EE000875F04C0F694E794D794C7948A95D2F775
:103EF000C114D104E104F10489F149815A816B8133
:103F00007C818985882371F04F5F5F4F6F4F7F4FB2
:103F100049835A836B837C8321E0C21AD108E1086C
:103F2000F108E6CF9E012F5F3F4FC5010E943A1B6B
:103F3000813091F390E080E029960FB6F894DEBFCF
:103F40000FBECDBFDF91CF911F910F91FF90EF90EA
:103F5000DF90CF90BF90AF909F900895492DBE0104
:103F60006F5F7F4FF80180A191A10E94901BE4CF69
:103F7000CF92DF92FF920F931F93CF93DF936C0149
:103F80008B01FC0184A58823C9F182E0F82ED0E0E2
:103F9000C0E0F60183A58F1520F140E06F2DC6012A
:103FA0000E942F1F009751F1FC012081213C31F527
:103FB0003296D801AC0FBD1F809621913191211509
:103FC000310579F02196CF3FD105C0F42F37310567
:103FD00010F02FE330E02D93E817F90771F7F39411
:103FE000D8CFF801EC0FFD1F1082CE01DF91CF91E9
:103FF0001F910F91FF90DF90CF900895F8011082EC
:10400000D0E0C0E0F2CFFF920F931F93CF93DF93E6
:10401000FC0124A5211107C081E0DF91CF911F9100
:104020000F91FF900895EC0186A587FF8AC08F77D6
:1040300086A7F12C10E000E08BA58F1508F469C06D
:1040400040E06F2DCE010E942F1FFC01892B09F447
:1040500073C08081803C61F1813C69F0853809F052
:104060006BC08CA5877390E095838483A8A1B9A1C8
:104070008C9181608C93408190E080E000FB1795EB
:10408000079517F9DF01A80FB91F2C91020F111D19
:104090008130910521F423E030E0453811F021E032
:1040A00030E0820F931F8032910540F3F394C4CF28
:1040B00081819EA596FF2BC0826081837889698962
:1040C0005A894B893C892D899E898F8970876187A0
:1040D0005287438734872587968787878C8D9D8D68
:1040E000AE8DBF8D848B958BA68BB78B78856985BC
:1040F0005A854B853C852D859E858F85708F618F78
:10410000528F438F348F258F968F878FAFCF8D7FC0
:10411000D4CF41E0BE016E5D7F4F88A199A10E947E
:10412000901B009749F0FC011383028388A199A199
:104130000E94AD1D811170CF8DA581608DA780E09B
:104140006CCF80A191A10E94AD1D811165CF9DA56D
:1041500091609DA762CF0F931F93CF93DF93EC01E4
:1041600008A919A90115110579F0C8010E94A81A1A
:10417000F8011082128219AA18AA1BAA1AAADF91A2
:10418000CF911F910F9108950AA91BA981E00115F4
:10419000110589F3C8010E940320F80114A616A690
:1041A000EACF4F925F926F927F928F929F92AF92DF
:1041B000BF92CF92DF92EF920F931F93CF93DF9333
:1041C000CDB7DEB72C970FB6F894DEBF0FBECDBFCC
:1041D000DC019E962C9121FD17C080E02C960FB635
:1041E000F894DEBF0FBECDBFDF91CF911F910F912D
:1041F000EF90DF90CF90BF90AF909F908F907F9087
:104200006F905F904F900895FC01848C958CA68CE4
:10421000B78C81149104A104B10409F4C1C06C01EC
:10422000408C518C628C738C26FF7CC0208531853C
:10423000428553856485758586859785AFEF0E9495
:10424000028100A0F1A1E02DDF01A25DBD4F0C9124
:10425000075F0E94DE802D833E834F8358876987E6
:104260007A878B879C870D811E812F8138850F5F10
:104270001F4F2F4F3F4F4114510461047104D9F176
:10428000D301C2010196A11DB11D89839A83AB831D
:10429000BC83B1E08B1A9108A108B1088418950875
:1042A000A608B708080D191D2A1D3B1D011511058B
:1042B0002105310561F5F6017081618152814381EB
:1042C00034812581968187817087618752874387F2
:1042D0003487258796878787708B618B528B438BBA
:1042E000348B258B968B878B86A5806886A7C60125
:1042F0000E94032073CF89829A82AB82BC82D6014E
:104300005C961D921D921D921C925F97CFCF4981A2
:104310005A816B817C81E12CCF010E94DA1B8111D3
:10432000CACF5BCF411451046104710481F1198239
:104330001A821B821C829E012F5F3F4FB301A20194
:1043400080A191A10E943A1B87FD47CF882379F075
:10435000F601408D518D628D738D0FEF1FEF980127
:1043600080A191A10E94E51A882309F436CF4981E2
:104370005A816B817C81411551056105710509F4F4
:104380009ACFF60180A191A10E94961CC8CF898284
:104390009A82AB82BC82148E158E168E178EE7CF52
:1043A00081E01CCF982F803290F0877F823279F0A5
:1043B0009A3369F0892F8F7B8C3349F082EC890F17
:1043C000823028F081E09C3519F080E0089581E08A
:1043D0000895AF92BF92CF92DF92EF92FF920F9328
:1043E0001F93CF93DF93EC016A017B0159018F8109
:1043F0009885A985BA858C159D05AE05BF0590F4F5
:104400009501B701A60189819A810E948A15DF91E1
:10441000CF911F910F91FF90EF90DF90CF90BF90C1
:10442000AF900895400F511F611D711D84179507AE
:10443000A607B70728F7CE010E9432158111E0CFF9
:10444000E6CFA19881E08093040508958091EB0563
:10445000823058F42091D9053091DA052F7D3E7FC6
:104460003093DA052093D90514C01092DA05109222
:10447000D905883061F59091DF052FE531E0929FF5
:10448000F001939FF00D1124EE5BF84F9081911194
:1044900021C09091E305911123C09091DF059130E7
:1044A00049F42091D9053091DA0531603093DA056D
:1044B0002093D905883009F044C08091D9059091A6
:1044C000DA0584609093DA058093D90508958530E4
:1044D00091F2DFCF2091D9053091DA052068C0CF65
:1044E000923041F7069B09C02091D9053091DA0539
:1044F00028603093DA052093D905823038F3909103
:10450000DF05913059F4029909C02091D905309105
:10451000DA0531603093DA052093D9052FE531E0D3
:10452000929FF001939FF00D1124EC5BF84F908166
:10453000913009F0BFCF2091D9053091DA05206282
:10454000B5CF863019F68091D9059091DA0580644F
:10455000B9CFFC0184AD95AD009711F00C94A81A69
:1045600086AD97AD009711F00C940320089508953F
:1045700008958FEF9FEF089590E080E008950895EB
:1045800090E080E00895EF92FF920F931F93CF93F6
:10459000DF93EC018B01DB0112968D919C911397B7
:1045A0009B838A8314968D919D910D90BC91A02D33
:1045B0008C839D83AE83BF83FB0180859185A2851B
:1045C000B38588879987AA87BB877E01FCE0EF0EB9
:1045D000F11CCB010C96E816F906C1F0C7010E9448
:1045E000AB20D801DC968D919C91DD97892BB1F0A1
:1045F0001C861D861E86FDAEECAEDC96ED91FC9110
:1046000080E2D70101900D928A95E1F7CE01DF910A
:10461000CF911F910F91FF90EF900895F80186AD13
:1046200097AD892B99F318AE19AE1AAEFFAEEEAE68
:1046300006ACF7ADE02D8FE2E4CF80E00895DC0119
:104640001D968D919C91DC01ED91FC910190F08182
:10465000E02D1994DC011296ED91FC91828508956C
:10466000DC011296ED91FC91660F770B0384F485C3
:10467000E02DE60FF71F80819181089590E080E0A2
:104680000895FC011682089580E0089526EC32E03A
:10469000FC01318320830C960C94AB20CF93DF93E5
:1046A000EC018DE493E099838883CE01805F9E4F77
:1046B0000E94AB20CE018C5F9E4FDF91CF910C9476
:1046C0004623FC011382128288EE93E0A0E0B0E062
:1046D00084839583A683B78315AE14AE17AE16AE4A
:1046E00086EC92E0918380830895FC0180A991A9D2
:1046F000892B39F481E022A933A9232B19F480E016
:10470000089581E00895DC01D096ED91FC91D19758
:10471000309739F09081907D81E0911101C080E067
:104720000895D296ED91FC913097C9F394A59075B8
:10473000F3CFAF92BF92CF92DF92EF92FF920F939F
:104740001F93DC01D096ED91FC91D197309731F118
:10475000808140E050E0BA0183FF0CC0408D518D54
:10476000628D738D80899189A289B389481B590B09
:104770006A0B7B0B4115B0E85B076105710520F002
:104780004FEF5FE760E070E0CA011F910F91FF906B
:10479000EF90DF90CF90BF90AF900895D296ED91BB
:1047A000FC9180E090E0309781F384A583FF23C0E3
:1047B00020893189428953896489758986899789D5
:1047C000A080B180C280D380E480F580068117810B
:1047D0000E940E81F22FE32F2F3F3F4741055105E5
:1047E000610571058105910519F010F0FFEFEFE704
:1047F0008F2F9E2FCACF20E030E040E050E060E0F5
:1048000070E080E090E0E6CF0C960C94992340E0B5
:1048100050E0BA010C9498180F931F9300E010E039
:1048200020E030E040E050E060E070E00E94C01D19
:104830001F910F910895CF93DF93EC0188A999A957
:10484000009711F00E9407248AA99BA9009721F0E4
:10485000DF91CF910C940C24DF91CF910895CF92EA
:10486000DF92EF92FF920F931F93CF93DF93EC01B0
:104870008B01888199810E94E40E1D870C87FF249B
:10488000F394F986CE010E940912DC011696FC927F
:104890000115110549F1C880D980D0E0C0E0F601CA
:1048A00080819181C817D907FCF40280F381E02D43
:1048B000CE01880F991FE80FF91FE080F18070E0AA
:1048C00060E0C701F8011995892B71F4D70118969A
:1048D0008C9180FF02C02196E2CF61E070E0C701B9
:1048E000F80119950197B9F7DF91CF911F910F91B9
:1048F000FF90EF90DF90CF900895CF93DF93EC017E
:10490000EE85FF8581E086839F810280F381E02D23
:10491000828180FF3FC0992361F191509F832C8158
:104920003D81A90165E09602400D511D1124CA0187
:10493000DA014C9164E070E00E94180DCE010E94F3
:10494000091221E0FC012683CE010E9409129F87F3
:104950008E87DC011296ED91FC91828184FF03C069
:10496000CE010E947D2461E070E08FEFDF91CF9156
:1049700008958989882311F38C819D81FC014081F0
:1049800064E070E00E94180D6A857B85CE010E946C
:104990002F24D4CF2C813D81A90165E09602400DE2
:1049A000511D1124CA01DA014C9164E070E00E94AB
:1049B000180D8A819B81DC01ED91FC910684F785BD
:1049C000E02D60E01995BACFAF92BF92CF92DF92FF
:1049D000EF92FF920F931F93CF93DF93EC010E940E
:1049E0001812DC0114968D919C91892B09F4B1C0A9
:1049F000CE010E9418127C01DC01ED91FC91C08473
:104A0000D184CE010E9418122F8115E04C815D8166
:104A10002102400D511D11249C0161E070E0C7018D
:104A2000F6011995892B09F094C0CE010E94181245
:104A30007C01DC011296ED91FC91C280D38056017D
:104A4000B2E0AB22BB242F818C819D812102800D9D
:104A5000911D1124FC01408162E070E00E94180D5C
:104A6000009709F056C0C60183709927039709F093
:104A70005FC09F818E8198170CF044C0CE010E94C8
:104A8000091201E0DC0116960C93CE010E94181267
:104A90002F812F5F2F83EC81FD812102E00DF11D1D
:104AA0001124928381831082CE010E940912FC019D
:104AB0000683D701ED91FC91A084B184CE010E94C0
:104AC00018122F814C815D812102400D511D11244E
:104AD0009C0162E070E0C701F501199502E010E069
:104AE000FF86EE8681E0F7018683C0FC25C08A81BF
:104AF0009B81DC01ED91FC910684F785E02D61E05E
:104B000019951AC06EEA72E4CE010E942F2400E0CB
:104B1000E6CF019769F4CE010E941812DC011296CB
:104B2000ED91FC91828180FD03C0CE010E947D2425
:104B300002E010E0AB28A1F6B8018FEFDF91CF9132
:104B40001F910F91FF90EF90DF90CF90BF90AF90AB
:104B5000089560E070E0F1CFDF92EF92FF920F9343
:104B60001F93CF93DF93EB01790108812330310547
:104B700009F472C080F42130310509F4ABC0223051
:104B8000310509F4B2C0DF91CF911F910F91FF90D1
:104B9000EF90DF9008952430310509F479C0C90100
:104BA0000797029780F7142F47FDEDCF89819A81EF
:104BB0000E94110D18173CF789819A81DC01129629
:104BC000ED91FC911397228133812C703327232B95
:104BD00009F496C021E016962C9349815A81DA0196
:104BE0001296ED91FC91868187FF07C00190F081BC
:104BF000E02DBE0180E890E01995402F60E270E062
:104C0000CE010E94180D1883B7E0EB1AF108E2E01C
:104C1000EE16F10420F48B819C810E94E424412F44
:104C200060E170E0CE010E94180D49815A81DA01DD
:104C30001296ED91FC91868186FFA5CF0190F081BF
:104C4000E02DBE0180E490E0DF91CF911F910F91A4
:104C5000FF90EF90DF90199489819A810E94110D45
:104C6000882309F490CF11E0100F89819A810E9466
:104C7000110D181754F089819A81DC011296ED917B
:104C8000FC91208520FF21C010E0011395CF7BCF40
:104C900089819A81011107C0DC011296ED91FC9186
:104CA000228124FD17C00E94110D882309F46BCFC7
:104CB0001FEF100F17FFE9CF89819A81DC0112964F
:104CC000ED91FC91208520FFDFCF0E94110D1FEF99
:104CD000180FDBCF8B819C81DF91CF911F910F91BA
:104CE000FF90EF90DF900C947D248B819C81DF916D
:104CF000CF911F910F91FF90EF90DF900C94E424DF
:104D0000602F0E940A0DDD24D394FC01D682612F0E
:104D100089819A810E940A0DDC011696DC925DCF92
:104D20009F92AF92BF92CF92DF92EF92FF920F933A
:104D30001F93CF93DF939B01482F6B01C091630AB0
:104D4000D091640A209709F443C0215031092230E0
:104D5000310508F0D2C0E090570AF090580A10E0F0
:104D600000E0D7018D919C911197081719079CF4C9
:104D70001296ED91FC91C801880F991FE80FF91F59
:104D800062E070E080819181FE011995019719F030
:104D90000F5F1F4FE6CF1092640A1092630A87E5F7
:104DA0009AE00E94091221E0DC0116962C93809172
:104DB000570A9091580ADF91CF911F910F91FF9060
:104DC000EF90DF90CF90BF90AF909F900C94E40E47
:104DD00080915E0AC0915B0AD0915C0AB5E08B02BB
:104DE000C00DD11D1124CB010997029708F06EC0A8
:104DF000E090570AF090580A10E000E0F701808137
:104E00009181081719070CF078C00280F381E02D1A
:104E1000C801880F991FE80FF91FA081B181EB81AC
:104E2000FC8187811696ED91FC911797082E000C56
:104E3000990B9C01220F331F220F331F0190F08129
:104E4000E02DE20FF31FA38014962D913C91820F69
:104E5000931FDC01BC9099249A949B0C89819A81C0
:104E6000DC01ED91FC910190F081E02D1995BAE003
:104E7000CB16D104C1F0992099F02881422F022E3F
:104E8000000C550BBA94BA94082E000C990B8B0D9C
:104E9000911DB7FC9A958417950714F42150288327
:104EA0000F5F1F4FABCF2A2DAA0C330B290D311DDD
:104EB00097FC3A95082E000C990B2817390784F7B0
:104EC00088818B156CF78F5F8883EACF8091650AA4
:104ED0009091660ADC01ED91FC910684F785E02D46
:104EE000BE01DF91CF911F910F91FF90EF90DF9066
:104EF000CF90BF90AF909F901994DF91CF911F9169
:104F00000F91FF90EF90DF90CF90BF90AF909F9068
:104F10000895CF93DF93EC0160E08E810E943B0CFB
:104F200061E08E810E943B0C60E08E810E943B0C10
:104F30008BE891E00197F1F7DF91CF910895CF923F
:104F4000DF92EF92FF920F931F93CF93DF936C0149
:104F50007C0187E0E80EF11CD0E0C0E0062F10E0F5
:104F6000B8010C2E02C0759567950A94E2F761703E
:104F7000F70181917F010E943B0C2196C430D1053D
:104F800079F7C601DF91CF911F910F91FF90EF90BC
:104F9000DF90CF900C948927CF92DF92EF92FF920F
:104FA0000F931F93CF93DF93EC01F62E642F8C8128
:104FB0000E943B0C8D818F3F19F060E00E943B0CFA
:104FC0000F2D10E08F8584FF25C06E0187E0C80E8D
:104FD000D11CF12CE12CB8010E2C02C075956795FF
:104FE0000A94E2F76170F60181916F010E943B0C17
:104FF000FFEFEF1AFF0A88E0E816F10461F7CE012F
:10500000DF91CF911F910F91FF90EF90DF90CF90A4
:105010000C948927B80184E0759567958A95E1F726
:10502000CE010E949F276F2DCE01DF91CF911F915E
:105030000F91FF90EF90DF90CF900C949F2741E06D
:105040000E94CC2781E090E0089540E00C94CC27AA
:10505000CF93DF93823029F490911C0F9860909346
:105060001C0F8093200F1092210F80E48093220F59
:1050700080E18093230F80E58093240F61E080918D
:10508000110F0E94690C8091120F8F3F19F061E09F
:105090000E94690C61E08091130F0E94690CCDE0C1
:1050A000DFE09E012D503F4080911C0F84FD0BC01E
:1050B00084E090E021962817390744F461E08E815E
:1050C0000E94690CEECF88E090E0F4CF8BE39DE086
:1050D0000197F1F760E08091110F0E943B0C60E0B6
:1050E0008091130F0E943B0C8091120F8F3F19F09B
:1050F00060E00E943B0C60911C0F64FD41C063E0C6
:105100008DE09FE00E949F27CBE4D6E4CE0101977B
:10511000F1F763E08DE09FE00E949F272197F1F770
:1051200063E08DE09FE00E949F2783E592E0019776
:10513000F1F762E08DE09FE00E949F2760911C0FD5
:1051400060628DE09FE00E94252884E080931D0F1F
:105150006CE08DE09FE00E94252861E08DE09FE0FB
:105160000E9425288BE39FE10197F1F782E080936D
:105170001E0F66E08DE09FE0DF91CF910C94252813
:1051800060628DE09FE00E9425288BE496E4019701
:10519000F1F760911C0F60628DE09FE00E9425286E
:1051A00083E592E00197F1F760911C0F60628DE05A
:1051B0009FE00E942528C2CF443008F043E0FC0164
:1051C0002389421710F04FEF420FFC01E40FF11D4D
:1051D0002489620F60680C942528DC011696ED91F5
:1051E000FC91B4E02B02900111240190F081E02D9C
:1051F000E20FF31F20813181430F620FFC0185858F
:1052000096850C94DC28EF92FF920F931F93CF9317
:10521000DF93EC01142FF22E8D859E85FC016089B1
:105220006E7F608B68600E9425288D859E85FC01BD
:1052300060896D7F608B68600E942528002391F053
:105240004F2D612F8D859E850E94DC288D859E8542
:10525000FC016089262FEE2069F02260208B6A60B5
:105260000E94252880E0DF91CF911F910F91FF9040
:10527000EF9008952160208B6960F2CFCF93DF9388
:10528000EC0161E08D859E850E9425288BE39FE1DE
:105290000197F1F7AE81BF8190E080E014962C91E8
:1052A0001497022E000C330B821793076CF49C01A9
:1052B000220F331F1296ED91FC911397E20FF31F0B
:1052C000118210820196EACFDF91CF9108950F935A
:1052D0001F93CF93DF93CDB7DEB7C055D1090FB67B
:1052E000F894DEBF0FBECDBF9E01245A3F4F6C968F
:1052F0004EAD5FAD6C9760E570E0CE0101960E9407
:10530000E8828E010F5F1F4FF80181918F01882382
:1053100079F08A3029F46DE08DE09FE00E941F282B
:10532000F801319760818DE09FE00E941F28ECCF4B
:10533000C05BDF4F0FB6F894DEBF0FBECDBFDF916D
:10534000CF911F910F9108952F923F924F925F92AC
:105350007F928F929F92AF92BF92CF92DF92EF9205
:10536000FF920F931F93CF93DF93EC014B017A01D0
:105370008A8180FFD5C0888183FF16C0888D998D72
:10538000AA8DBB8D488959896A897B89841B950BB5
:10539000A60BB70BA70170E060E0481759076A0732
:1053A0007B07A0F07C0112C086FF10C0EE81FF8158
:1053B0008681978155E0880F991F5A95E1F72889D2
:1053C0003989821B930B8E159F0560F36701712C41
:1053D0001E018CE0280E311C412C42E0542EC114D9
:1053E000D10409F4F3C0488959896A897B89EE811F
:1053F000FF818A0111702881DB01CA0139E0B6956D
:10540000A795979587953A95D1F726FF30C0448D9B
:10541000558D668D778D480F591F6A1F7B1FEE8152
:10542000FF810115110509F081C0C11482E0D80681
:1054300008F47CC087A190A5A1A5B2A5481759077B
:105440006A077B0709F472C0C11484E0D80608F02B
:1054500094C001E010E0940181A192A10E948A15FC
:10546000882309F45DC0A12C82E0B82E75C073803A
:1054700078220115110581F471100EC0452B462BC1
:10548000472B81F527FF29C0848D958DA68DB78D7B
:105490008C879D87AE87BF87EE81FF814C855D85B8
:1054A0006E857F854250510961097109848104C06C
:1054B000440F551F661F771F8A95D2F780899189FF
:1054C000A289B389840F951FA61FB71FAC01BD0128
:1054D000470D511D611D711DA2CF8C8D9D8DAE8D0F
:1054E000BF8DD6CF4C855D856E857F8523FF0CC033
:1054F0008A8186FF09C04F5F5F4F6F4F7F4F4C8798
:105500005D876E877F87C8CF9101CF010E94BC174E
:1055100087FD06C08111C0CF8881807D09F056C00B
:105520008981826089838FEF9FEF53C0C201801B06
:10553000910B56018C159D0508F45C0120E0CF010C
:1055400080960E940216009759F3BC01600F711FEC
:10555000A501C4010E9438828A0C9B1C8889998904
:10556000AA89BB898A0D9B1DA11DB11D888B998BB2
:10557000AA8BBB8BCA18DB0832CF8601012F1127FB
:10558000069530E020E0888186FD0EC08281871973
:10559000990B092E000CAA0BBB0B80179107A207D1
:1055A000B30710F48C019D01D901C80129E0880FCF
:1055B000991FAA1FBB1F2A95D1F75C019401CF0147
:1055C00080960E94E9218111C7CFAACFC7018C190B
:1055D0009D09DF91CF911F910F91FF90EF90DF9088
:1055E000CF90BF90AF909F908F907F905F904F90A3
:1055F0003F902F900895EF92FF920F931F93CF93B8
:10560000DF931F92CDB7DEB77C01962FF70140895B
:105610005189628973898A019B0185E036952795B6
:10562000179507958A95D1F70F7011F091112BC03E
:1056300041E050E0BE016F5F7F4FC7010E94A42987
:10564000813051F090E080E00F90DF91CF911F9179
:105650000F91FF90EF900895F70180899189A289B9
:10566000B3894F96A11DB11D808B918BA28BB38BFB
:10567000F701868197818B96F0E20F9F90011124AC
:10568000820F931FE1CF405E5F4F6F4F7F4F408B84
:10569000518B628B738BECCFCF93DF93EC01AB011B
:1056A00070E060E085E0440F551F661F771F8A9504
:1056B000D1F7CE010E949818882331F060E0CE0126
:1056C000DF91CF910C94FB2A90E080E0DF91CF91A5
:1056D00008952F923F924F925F926F927F928F9296
:1056E0009F92AF92BF92CF92DF92EF92FF920F9371
:1056F0001F93CF93DF93CDB7DEB72E970FB6F894F5
:10570000DEBF0FBECDBF9E878D877A8769875C8796
:105710004B87DC019E968C919E9780FF45C186FD4C
:1057200004C09C968C9183FF4FC0ED85FE85F0816F
:10573000F983AD85BE851196BC91BA83ED85FE8552
:10574000F281FB83AD85BE851396BC91BC83ED854C
:10575000FE85F481FD83AD85BE851596BC91BE8323
:10576000ED85FE85F681FF83AD85BE851796BC91DC
:10577000B887ED85FE852088318842885388648803
:105780007588868897882B853C8540E050E060E0EE
:1057900070E080E090E0A980BA80CB80DC80ED8072
:1057A000FE800F8118850E94F9805101620173010A
:1057B00084010E94178141F038F0C101A981BA81AA
:1057C0008A1B9B0B9C878B878B849C842D843E84B7
:1057D000B8E12B0E311C8114910409F46FC1ED85E1
:1057E000FE85F081F983AD85BE851196BC91BA83A3
:1057F000ED85FE85F281FB83AD85BE851396BC9158
:10580000BC83ED85FE85F481FD83AD85BE8515964F
:10581000BC91BE83ED85FE85F681FF83AD85BE8597
:105820001796BC91B887AD85BE859096ED91FC9199
:10583000DF01AD5DBD4FCD90DD90ED90FC90898195
:105840009A81AB81BC81C822D922EA22FB2226019F
:1058500091E05922C114D104E104F104F9F4298141
:105860003A814B815C816D817E818F819885A0E03A
:105870000E94208109F072C0AD85BE859C968C91F6
:1058800086FF65C0E15EFD4F80819181A281B38179
:10589000ED85FE85808F918FA28FB38FED85FE857C
:1058A00080A191A1FC01E25DFD4FA08149E0F69449
:1058B000E794D794C7944A95D1F7ED85FE85408D3E
:1058C000518D628D738D42505109610971090A2E03
:1058D00004C0440F551F661F771F0A94D2F74C0D62
:1058E0005D1D6E1D7F1DFC01E95EFD4F0081118174
:1058F00022813381400F511F621F731F41145104D5
:1059000009F05AC08114F2E09F0608F455C0FC016A
:10591000078110852185328540175107620773077B
:1059200009F44AC08114F4E09F0608F09AC001E02F
:1059300010E029853A85DC0111968D919C910E9499
:105940008A15882389F1612C82E0782E4BC0ED8581
:10595000FE85848D958DA68DB78D9ACFAD85BE853C
:1059600058964D915D916D917C915B979E968C912F
:105970009E9786FF0AC04F5F5F4F6F4F7F4FFD01BD
:10598000408F518F628F738F89CF9101CF010E9419
:105990003A1B87FD09C0811181CFAD85BE859C96DC
:1059A0008C91807509F08AC0ED85FE8585A58260A1
:1059B00085A78FEF9FEF86C020E032E024193509DC
:1059C00034012815390508F4390120E00E94021637
:1059D000009751F3BC01640D751DA30189859A855B
:1059E0000E943882E985FA85E60DF71DFA87E98776
:1059F000930140E050E060E070E080E090E0AD8531
:105A0000BE85AC901196BC9011971296CC901297CF
:105A10001396DC9013971496EC9014971596FC90BF
:105A2000159716960C91169717961C9117970E942A
:105A3000F9802C9311963C93119712964C931297E0
:105A400013965C93139714966C93149715967C9306
:105A5000159716968C93169717969C938618970809
:105A6000BACE2401452C55244694712C612C01E0BA
:105A700010E020E030E004C0000F111F221F331F90
:105A8000AA95D2F70C191D092E093F094016510697
:105A90006206730610F4930182016801790129E01E
:105AA000CC0CDD1CEE1CFF1C2A95D1F73601298594
:105AB0003A850E94E921811195CF76CF8B859C850F
:105AC000881999092E960FB6F894DEBF0FBECDBF88
:105AD000DF91CF911F910F91FF90EF90DF90CF90CA
